{
  "contractName": "Game",
  "abi": [
    {
      "constant": false,
      "inputs": [],
      "name": "foo",
      "outputs": [],
      "payable": false,
      "stateMutability": "nonpayable",
      "type": "function"
    }
  ],
  "bytecode": "0x6080604052348015600f57600080fd5b5060a28061001e6000396000f3fe6080604052348015600f57600080fd5b506004361060285760003560e01c8063c298557814602d575b600080fd5b60336035565b005b60006018905060006001905060008090505b6103e8811215606157818301925080806001019150506047565b5081600081905550505056fea265627a7a72315820e5b614bffb7348119493a3f8aec45a25ff8c017f2d4d82b3e8f694511265d1d764736f6c63430005100032",
  "source": "pragma solidity ^0.5.0;\n\ncontract Game {\n    // address computer;\n    // address turn;\n    \n    // uint8 move_count;\n    // bool won;\n    // bool draw;\n    // address winner = (address)(0x0);\n    \n    // address[3][3] board;\n    uint256 buffer;\n    \n    // constructor() public {\n    //     computer = 0xb84AC43014d60AE5dCe5d36975eE461f31e953d3;\n    //     move_count = 0;\n    //     initBoard();\n    // }\n\n    function foo() public {\n        uint256 first = 24;\n        uint256 second = 1;\n        for (int i= 0; i < 1000; i++) {\n            first += second;\n        }\n        buffer = first;\n    }\n    \n    // function initBoard() private {\n    //     address empty_cell = (address)(0x0);\n    //     address[3][3] memory new_board = [[empty_cell, empty_cell, empty_cell], \n    //     [empty_cell, empty_cell, empty_cell], \n    //     [empty_cell, empty_cell, empty_cell]];\n    //     board = new_board;\n    // }\n    \n    // function reset() public {\n    //     computer = 0xb84AC43014d60AE5dCe5d36975eE461f31e953d3;\n    //     move_count = 0;\n    //     initBoard();\n    // }\n    \n    // function checkIfFinalState() internal returns (bool) {\n    //     address empty_cell = (address)(0x0);\n    //     // Check rows\n    //     for (uint i = 0; i < 3; i++) {\n    //         if (empty_cell != board[i][0] && \n    //         board[i][0] == board[i][1] && \n    //         board[i][1] == board[i][2]) {\n    //             won = true;\n    //             winner = board[i][0];\n    //             return true;\n    //         }\n    //     }\n    //     // Check cols\n    //     for (uint j = 0; j < 3; j++) {\n    //         if (empty_cell != board[0][j] && board[0][j] == board[1][j] && board[1][j] == board[2][j]) {\n    //             won = true;\n    //             winner = board[0][j];\n    //             return true;\n    //         }\n    //     }\n    //     // Check main diagonal\n    //     if (empty_cell != board[0][0] && board[0][0] == board[1][1] && board[1][1] == board[2][2]) {\n    //         won = true;\n    //         winner = board[0][0];\n    //         return true;\n    //     }\n    //     // Check other diagonals\n    //     if (empty_cell != board[2][0] && board[2][0] == board[1][1] && board[1][1] == board[0][2]) {\n    //         won = true;\n    //         winner = board[2][0];\n    //         return true;\n    //     }\n    //     // No winner yet\n    //     return false;\n    // }\n    \n    // // Crosses first empty_cell\n    // function computerMoves() internal returns (address) {\n    //     address empty_cell = (address)(0x0);\n    //     for (uint i = 0; i < 3; i++) {\n    //         for (uint j = 0; j < 3; j++) {\n    //             if (empty_cell == board[i][j]) {\n    //                 board[i][j] = computer;\n    //                 if (++move_count == 9 || checkIfFinalState()) {\n    //                     return winner;\n    //                 }\n    //             }\n    //         }\n    //     }\n    //     return empty_cell;\n    // }\n    \n    // // Makes move from player on coordinate _x and _y\n    // function makeMove(address _player, uint _x, uint _y) public returns (address) {\n        \n    //     require(_x < 0 && _x >= 3, \"The value of x coord is wrong, should be in [0, 2]\");\n    //     require(_y < 0 && _y >= 3, \"The value of y coord is wrong, should be in [0, 2]\");\n    //     require(board[_x][_y] != (address)(0x0), \"Can not make this move, the cell is occupied\");\n    //     board[_x][_y] = _player;\n        \n    //     if (++move_count == 9 || checkIfFinalState()) {\n    //         return winner;\n    //     }\n        \n    //     return computerMoves();\n    // }\n    \n    // function hasWinner() public view returns (bool) {\n    //     return won;\n    // }\n    \n    // function isDraw() public view returns (bool) {\n    //     return draw;\n    // }\n    \n    // function getBoard() public view returns (address[3][3] memory) {\n    //     return board;\n    // }\n    \n    // function getWinner() public view returns (address) {\n    //     return winner;\n    // }\n    \n}\n",
  "sourcePath": "/home/ayanginet/Desktop/dapp-adder-master/contracts/Game.sol",
  "compiler": {
    "name": "solc",
    "version": "0.5.16+commit.9c3226ce.Emscripten.clang"
  },
  "schemaVersion": "3.2.1",
  "updatedAt": "2020-07-18T14:14:59.648Z",
  "networkType": "ethereum",
  "devdoc": {
    "methods": {}
  },
  "userdoc": {
    "methods": {}
  }
}